:04000000FEEF17F008
:100600000000040EA9EC05F001C030F002C031F08A
:1006100030C001F031C002F0036A046A700E056E4A
:10062000170E066E000E076E000E086E42EC05F007
:1006300001C00DF002C00EF003C00FF004C010F0B6
:10064000FF0E116E030E126E000E136E000E146E6E
:1006500046EC04F00DC02EF00EC02FF0030E046E19
:10066000E80E036E2EC001F02FC002F0D2EC04F0B1
:1006700001C008F002C009F00B6A0A0E0A6E77EC9E
:1006800005F00850300F256E046A640E036E2EC00C
:1006900001F02FC002F0D2EC04F001C008F002C05B
:1006A00009F00B6A0A0E0A6E77EC05F00850300F5D
:1006B000266E046A0A0E036E2EC001F02FC002F0EF
:1006C000D2EC04F001C008F002C009F00B6A0A0E77
:1006D0000A6E77EC05F00850300F276E2EC008F038
:1006E0002FC009F00B6A0A0E0A6E77EC05F008506D
:1006F000300F286E296A2EC01AF02FC01BF012008E
:10070000936A816A2FEC06F001EC03F01AC023F023
:100710001BC024F023C001F024C002F0030E046EBD
:10072000E80E036ED2EC04F00150300F1C6E046A28
:10073000640E036E23C001F024C002F0D2EC04F07A
:1007400001C008F002C009F00B6A0A0E0A6E77ECCD
:1007500005F00850300F1D6E046A0A0E036E23C0A8
:1007600001F024C002F0D2EC04F001C008F002C095
:1007700009F00B6A0A0E0A6E77EC05F00850300F8C
:100780001E6E23C008F024C009F00B6A0A0E0A6E20
:1007900077EC05F00850300F1F6E206A066A300EA5
:1007A000056E1C0E076E040E086E0BEC05F0070EAE
:1007B000226ED00E216E2106D8A0220622BEEBEFBB
:1007C00003F0225006E12104D8B0E9EF03F0EBEF8B
:1007D00003F0DBEF03F0F1EC03F084EF03F0FEEF46
:1007E00017F0010E98EC04F0136E0E0E1318D8A437
:1007F000FCEF03F0FEEF03F002EF04F0010E346EA5
:1008000026EF04F00D0E1318D8A409EF04F00BEF37
:1008100004F00FEF04F0020E346E26EF04F00B0E1E
:100820001318D8A416EF04F018EF04F01CEF04F02E
:10083000030E346E26EF04F0070E1318D8A423EF2E
:1008400004F025EF04F026EF04F0346A34C010F011
:10085000066A500E056E100E076E010E086E0BEC48
:1008600005F0070E126ED00E116E1106D8A01206FA
:1008700012BE45EF04F0125006E11104D8B043EF68
:1008800004F045EF04F035EF04F01200000E156E91
:10089000000E166E000E176E000E186E115012101C
:1008A00013101410D8B457EF04F059EF04F08FEF81
:1008B00004F0010E196E63EF04F0D8901136123671
:1008C00013361436192A14AE68EF04F06AEF04F0F8
:1008D0005DEF04F0D89015361636173618361150DD
:1008E0000D5C12500E5813500F5814501058D8A0C9
:1008F0007CEF04F07EEF04F087EF04F011500D5E02
:1009000012500E5A13500F5A1450105A1580D89086
:100910001432133212321132192E6AEF04F015C05C
:100920000DF016C00EF017C00FF018C010F0120036
:10093000016E0104D8A49FEF04F0A1EF04F0C6EF0C
:1009400004F082500F0B0F0AD8B4A9EF04F0ABEFFC
:1009500004F0B8EF04F04150D8B4B1EF04F0B3EFB5
:1009600004F0B8EF04F0416A82500F0BD1EF04F0AD
:1009700082500F0B0F0AD8A4C0EF04F0C2EF04F0AE
:10098000D0EF04F0010E416ED0EF04F00150D8A476
:10099000CCEF04F0CEEF04F0D0EF04F0B4EF04F0AD
:1009A000FF0E1200066A000E056E03500410D8B444
:1009B000DCEF04F0DEEF04F006EF05F0010E076E49
:1009C000E6EF04F0D89003360436072A04AEEBEFC6
:1009D00004F0EDEF04F0E2EF04F0D89005360636AF
:1009E0000350015C04500258D8A0F9EF04F0FBEF6B
:1009F00004F000EF05F00350015E0450025A058038
:100A0000D89004320332072EEDEF04F005C001F058
:100A100006C002F012000F01436B446B05C001F0E9
:100A200006C002F0CCEC05F008C045FF460E0C6E87
:100A30000F0E0D6E0F6A000E0E6E2DEF05F00750B3
:100A40000E24D96EDA6A0E500C24E16E0F500D2080
:100A5000E26EDFCFE7FF0E4A0F2A0850096E0A6ADE
:100A600009500E5C0F50800A0B6E0A50800A0B581A
:100A7000D8A03DEF05F03FEF05F01FEF05F00F01A7
:100A800040871200000E096E000E0A6E000E0B6EFB
:100A9000000E0C6E01A04FEF05F051EF05F059EF7D
:100AA00005F00550092606500A2207500B2208506F
:100AB0000C22D8900536063607360836D890043210
:100AC0000332023201320150021003100410D8A484
:100AD0006CEF05F06EEF05F04AEF05F009C001F08C
:100AE0000AC002F00BC003F00CC004F012000A5060
:100AF0000B10D8B47EEF05F080EF05F0A4EF05F001
:100B0000010E0C6E88EF05F0D8900A360B360C2AD1
:100B10000BAE8DEF05F08FEF05F084EF05F00A5076
:100B2000085C0B500958D8A098EF05F09AEF05F033
:100B30009EEF05F00A50085E0B50095AD8900B3210
:100B40000A320C2E8FEF05F008C008F009C009F03A
:100B50001200076E07C003F0D8900336D890033612
:100B6000C250C30B0310C26EC282C2B2BAEF05F00C
:100B7000BCEF05F0B5EF05F0C350C4CF03F0046A35
:100B800003C004F0036A0310056E0450066E05C02E
:100B900001F006C002F0120001C003F0070E0316B8
:100BA000050E046ED8900336042ED2EF05F00350E4
:100BB0000F01426F01C003F002C004F0D89004326C
:100BC0000332D89004320332D890043203320350F7
:100BD000416F1200939493861F0E6F166F8E800ED6
:100BE0006E18D8A4F6EF05F0F8EF05F0EFEF05F07A
:100BF000776AE10E706E1B0E716E030E726E0D0140
:100C0000D46B1F0E6F166F50606A608A608C120082
:100C10006C0EF66E0C0EF76E000EF86E00EE37F0EE
:100C200010EE0BF00900F5CFEEFFE550E150FAE1D0
:100C300000EE25F0120EEE6AE806FDE1000180EFFD
:100C400003F0C08EC09AC088C096C090C082C09485
:100C5000C292C19AC198C46AC36AC280120021ECD0
:100C600006F03CEC06F0EAEC05F01200E721CB6B55
:070C70002D6EEE23EF6F0172
:080C780094500F09946E120064
:042FFC0008EF06F0E4
:020000040020DA
:08000000FFFFFFFFFFFFFFFF00
:020000040030CA
:0E000000FF071F1FFF8285FF0FC00FE00F409C
:00000001FF
