:04000000FEEF17F008
:102A3200936A816A1200A4EC16F019EC15F0B4EC5A
:102A420015F01200286E000E256E27507AEC15F054
:0C2A5200010E256E28507AEC15F01200E1
:102A5F005247004E47004731004732004733004787
:102A6F003400473500434300011CEC15F0EB0E27F3
:102A7F006E2F0E286E800E296E24EC16F0F7EC16D2
:102A8F00F046EF15F0FEEF17F0C00E276E2950D964
:102A9F006EDA6ADF5023EC15F0C10E276E2950D97C
:102AAF006EDA6A010ED926DF5023EC15F012005FA3
:102ABF000EF66E2A0EF76E000EF86E00EE45F01051
:102ACF00EE19F00900F5CFEEFFE550E150FAE10005
:102ADF00EE01F0240EEE6AE806FDE1000EF86E003E
:102AEF00013CEF15F0266E25B080EF15F083EF1542
:102AFF00F0828284EF15F0829226C083FF82848257
:102B0F0094958E828082928284829483BE92EF15F6
:102B1F00F094EF15F08BEF15F08290959E120061F7
:102B2F0050276E286AD89027362836D8902736280F
:102B3F0036D890273628366238E842070B070B291C
:102B4F006E2A6A275029102B6E28502A102C6E2BB4
:102B5F00C025F02CC026F01200939493861F0E6FA1
:102B6F00166F8E800E6E18D8A4C0EF15F0C2EF1539
:102B7F00F0B9EF15F0776AE10E706E1B0E716E03F0
:102B8F000E726E0D01D46B1F0E6F166F50606A6060
:102B9F008A608C120020EE45F010EE2DF0170EDB40
:102BAF00CFE3FFE806FCE22A50D96EDA6ADF50174E
:102BBF006E080E1760E6EF15F0E8EF15F0F4EF155D
:102BCF00F01750030DF3502D0F2C6E2CC027F0284B
:102BDF006AC30E296E24EC16F01200030E2A64FB52
:102BEF00EF15F0FDEF15F023EF16F0C60E276E2947
:102BFF0050D96EDA6ADF5023EC15F0C70E276E2915
:102C0F0050D96EDA6A010ED926DF5023EC15F0C8C1
:102C1F000E276E2950D96EDA6A020ED926DF50239D
:102C2F00EC15F0C90E276E2950D96EDA6A030ED94A
:102C3F0026DF5023EC15F01200000E256E29507A76
:102C4F00EC15F041EF16F0010E256E27C0F6FF28A8
:102C5F00C0F7FFF86A050EF76403D00800F55005BA
:102C6F00D0F6CFE9FFF7CFEAFFEF507AEC15F02758
:102C7F004A282A27C0F6FF28C0F7FFF86A050EF783
:102C8F006403D00800F55005D0F6CFE9FFF7CFEA7F
:102C9F00FFEF500009D8A457EF16F059EF16F02B9D
:102CAF00EF16F0120060AE5FEF16F061EF16F09FB7
:102CBF00EF16F097EC15F02D50D96EDA6A25C0DEBD
:102CCF00FF26C0DDFF2F50D96EDA6A65CFDFFF66B2
:102CDF000E336E0F0E346E366A000E356E86EF169B
:102CEF00F035503324D96E36503420DA6E2E5035ED
:102CFF0024E16EE26ADFCFE7FF354A362A2F50D93B
:102D0F006EDA6ADF50306E316A3050355C36508083
:102D1F000A326E3150800A3258D8A099EF16F09BC4
:102D2F00EF16F078EF16F0609EA490A3EF16F02F39
:102D3F0050D96EDA6ADF6A1200956A9450F80B94D4
:102D4F006E8290C30E276ECD0EE82EFED7272EFC77
:102D5F00D70000000E256E330E7AEC15F01B0E27F0
:102D6F006E9E0EE82EFED7272EFCD700D0000E2524
:102D7F006E330E7AEC15F0A60EE82EFED700D000BB
:102D8F000E256E330E7AEC15F000D000D000000047
:102D9F000E256E020E7AEC15F0A60EE82EFED70069
:102DAF00D0000E256E380E7AEC15F0A60EE82EFE2A
:102DBF00D700D0000E256E010E7AEC15F0040E2709
:102DCF006E3E0EE82EFED7272EFCD7000E256E0C7A
:102DDF000E7AEC15F0A60EE82EFED700D0120022C8
:102DEF000E2D6E1A0E2E6E240E2F6E5AEC16F02428
:102DFF00501C0FD96EDA6ADF6A100E22182310D812
:102E0F00A40CEF17F00EEF17F016EF17F01A0E29AC
:102E1F006E24C02AF04CEC15F04AEF17F0300E225A
:102E2F00182310D8A41EEF17F020EF17F028EF1774
:102E3F00F01A0E296E24C02AF0F5EC15F04AEF17A0
:102E4F00F0200E22182310D8A430EF17F032EF170E
:102E5F00F03AEF17F01A0E2A6E24C02BF0D2EC15B1
:102E6F00F04AEF17F0500E22182310D8A442EF1794
:102E7F00F044EF17F04AEF17F01A0E296E24C02A0C
:102E8F00F04BEC17F012001950D8B451EF17F05463
:102E9F00EF17F0010E55EF17F0000E196EDEEF175A
:102EAF00F01950D8B45EEF17F060EF17F065EF1719
:102EBF00F081500309816E68EF17F08150FC0B8190
:102ECF006E81503F0B816ECB0E276E3C0E23EC159F
:102EDF00F0CC0E276E2D0E23EC15F0CD0E276E4C79
:102EEF000E23EC15F0F4EF17F01950D8B482EF174A
:102EFF00F084EF17F089EF17F08150C009816E8CC5
:102F0F00EF17F081503F0B816E8150FC0B816ECB20
:102F1F000E276E2D0E23EC15F0CC0E276E3E0E23D2
:102F2F00EC15F0CD0E276E520E23EC15F0F4EF17C3
:102F3F00F01950D8B4A6EF17F0A8EF17F0B0EF17AD
:102F4F00F08150C009816E81500309816EB6EF1771
:102F5F00F081503F0B816E8150FC0B816ECB0E27A1
:102F6F006E3C0E23EC15F0CC0E276E480E23EC159D
:102F7F00F0CD0E276E3E0E23EC15F0F4EF17F08117
:102F8F00503F0B816E8150FC0B816ECB0E276E4F25
:102F9F000E23EC15F0CC0E276E460E23EC15F0CD5C
:102FAF000E276E460E23EC15F0F4EF17F02950D9CB
:102FBF006EDA6ADF50000AD8B458EF17F0010AD85A
:102FCF00B47CEF17F0030AD8B4A0EF17F0010AD8BA
:102FDF00B4C7EF17F0F4EF17F0120000535020476B
:0C2FEF00452052504D2020494E44000067
:042FFC005FEF15F07E
:020000040020DA
:08000000FFFFFFFFFFFFFFFF00
:020000040030CA
:0E000000FF071F1FFF8285FF0FC00FE00F409C
:00000001FF
