:04000000FEEF17F008
:1006000000001250800B1F6E12501224266E11AE85
:100610000CEF03F00EEF03F00FEF03F026802650EF
:10062000D8B415EF03F017EF03F02BEF03F02628F3
:10063000D8A41DEF03F01FEF03F027EF03F0000E27
:100640000F6E000E106E000E116E000E126E118EE7
:10065000126A33EF03F0000E0F6E000E106E000EE4
:10066000116E000E126E1650800B1F1A16501624B3
:10067000276E15AE3EEF03F040EF03F041EF03F0BD
:1006800027802750D8B447EF03F049EF03F05DEF20
:1006900003F02728D8A44FEF03F051EF03F059EFF0
:1006A00003F0000E136E000E146E000E156E000E99
:1006B000166E158E166A65EF03F0000E136E000EAF
:1006C000146E000E156E000E166E135014101510D9
:1006D0001610D8A46EEF03F070EF03F088EF03F06C
:1006E000000E0F6E000E106E000E116E000E126ED8
:1006F000800E11127F0E12121F5012120FC00FF037
:1007000010C010F011C011F012C012F0C7EF04F0C9
:100710002650D8A48EEF03F090EF03F09AEF03F089
:10072000000E0F6E000E106E000E116E000E126E97
:10073000C7EF04F0275026C017F0186A175E000EA6
:10074000185A7F0E1724206E000E1820216E0FC03D
:100750001BF010C01CF011C01DF012C01EF0000EE6
:100760000F6E000E106E000E116E000E126E000E57
:10077000226E000E236E000E246E000E256E276A78
:10078000FAEF03F02750D8B4C8EF03F0CAEF03F034
:10079000E1EF03F0D8901B361C361D361E36D8907C
:1007A0000F3610361136123625AED9EF03F0DBEFD7
:1007B00003F0DCEF03F00F80D89022362336243686
:1007C000253613501B5C14501C5815501D581650DC
:1007D0001E58D8A0EEEF03F0F0EF03F0F9EF03F0AE
:1007E000258C13501B5E14501C5A15501D5A165060
:1007F0001E5A272A190E276400EF04F002EF04F0B6
:10080000C2EF03F01B501C101D101E10D8B40BEFCC
:1008100004F00DEF04F025EF04F0228025EF04F042
:10082000D8900F3610361136123625AE1AEF04F076
:100830001CEF04F01DEF04F00F80D8902236233611
:10084000243625362006D8A0210611AE2AEF04F062
:100850002CEF04F010EF04F0276A25AE32EF04F01D
:1008600034EF04F058EF04F0FF0E2214176EFF0E61
:100870002314186EFF0E2414196E7F0E25141A6EA1
:100880001750181019101A10D8B449EF04F04BEF94
:1008900004F04FEF04F0010E276E58EF04F00FA0A4
:1008A00054EF04F056EF04F058EF04F04BEF04F06F
:1008B0002750D8B45EEF04F060EF04F084EF04F04A
:1008C000010E0F26000E10221122122212A06BEF31
:1008D00004F06DEF04F084EF04F00FC017F010C0C7
:1008E00018F011C019F012C01AF01A341A32193265
:1008F0001832173217C00FF018C010F019C011F0DD
:100900001AC012F0204A212A21BE8FEF04F0215094
:1009100008E12028D8A08FEF04F091EF04F09CEFBD
:1009200004F0000E216E2068000E0F6E000E106E97
:10093000000E116E000E126E21BEA9EF04F02150C0
:1009400006E12004D8B0A7EF04F0A9EF04F0B5EF5A
:1009500004F0216A000E206E000E0F6E000E106E65
:10096000000E116E000E126E1F6A20C026F026A027
:10097000BCEF04F0BEEF04F0C1EF04F0118EC2EF43
:1009800004F0119ED8902630126E7CEF03F0120016
:10099000096E0950D8B4CFEF04F0D1EF04F0F3EFB3
:1009A00004F004BED8EF04F0D6EF04F0F3EF04F047
:1009B00001C005F002C006F003C007F004C008F053
:1009C000051E061E071E081E052A000E0622072207
:1009D000082205C00BF006C00CF007C00DF008C0DF
:1009E0000EF0FBEF04F001C00BF002C00CF003C0EE
:1009F0000DF004C00EF00150021003100410D8A432
:100A000004EF05F006EF05F010EF05F0000E016EA3
:100A1000000E026E000E036E000E046EA1EF05F0D4
:100A2000960E0A6E1AEF05F00A2AD8900E320D3291
:100A30000C320B32000E0B14056E000E0C14066EF9
:100A4000000E0D14076EFE0E0E14086E05500610F3
:100A500007100810D8A42FEF05F031EF05F014EFC0
:100A600005F03FEF05F00A2A010E0B26000E0C22BE
:100A70000D220E22D8900E320D320C320B32000EA7
:100A80000B14056E000E0C14066E000E0D14076E8E
:100A9000FF0E0E14086E0550061007100810D8A49B
:100AA00054EF05F056EF05F033EF05F05EEF05F07B
:100AB0000A06D8900B360C360D360E360DBE63EF97
:100AC00005F065EF05F06DEF05F0020E0A606BEFC3
:100AD00005F06DEF05F058EF05F00AB072EF05F084
:100AE00074EF05F075EF05F00D9ED8900A320AC03C
:100AF00005F0066A076A086A05C008F0076A066A10
:100B0000056A05500B1206500C1207500D120850C2
:100B10000E120950D8B48FEF05F091EF05F099EF60
:100B200005F004BE98EF05F096EF05F099EF05F09B
:100B30000E8E0BC001F00CC002F00DC003F00EC011
:100B400004F012002A342B34316E3150D8A4ABEFAC
:100B500005F0ADEF05F0B7EF05F0000E286E000EC2
:100B6000296E000E2A6E000E2B6E24EF06F028C0B0
:100B70002CF029C02DF02AC02EF02BC02FF0200E13
:100B8000C7EF05F0D8902F322E322D322C32E82EBE
:100B9000C2EF05F02C50306E2A8EFF0E2816FF0E85
:100BA0002916FF0E2A16000E2B16960E315E31BE48
:100BB000DEEF05F0DCEF05F0F4EF05F03150800AD0
:100BC000970FD8B0E6EF05F0E8EF05F0EAEF05F093
:100BD000ADEF05F0D8902B322A3229322832313E3F
:100BE000EAEF05F00CEF06F01F0E3164FAEF05F0A6
:100BF000FCEF05F004EF06F0ADEF05F0D8902836D5
:100C000029362A362B3631063150D8A40AEF06F0A1
:100C10000CEF06F0FEEF05F03050D8B412EF06F0FE
:100C200014EF06F01CEF06F02B1E2A1E291E286C5E
:100C3000000E29222A222B2228C028F029C029F0C0
:100C40002AC02AF02BC02BF0120020EE78F010EE14
:100C500034F0170EDBCFE3FFE806FCE2CDEC08F042
:100C6000EBEC07F032C051F033C052F051C001F04C
:100C700052C002F0046A0A0E036E8AEC06F00150BC
:100C8000300F536E51C001F052C002F0046A0A0ED8
:100C9000036EEAEC06F00150300F546E556A066A96
:100CA000100E056E530E076E020E086EB4EC07F0C0
:100CB000070E4D6ED00E4C6E4C06D8A04D064C283B
:100CC00006E14D28D8A467EF06F069EF06F05CEF67
:100CD00006F07BEC07F0506E066A200E056E500E93
:100CE000076E010E086EB4EC07F0070E4F6ED00EC3
:100CF0004E6E4E06D8A04F064E2806E14F28D8A4C7
:100D000084EF06F086EF06F079EF06F030EF06F09C
:100D1000FEEF17F0066A04BE92EF06F090EF06F0C1
:100D200098EF06F0036C041ED8B0042A010E066E7C
:100D300002BE9FEF06F09DEF06F0A5EF06F0016CF6
:100D4000021ED8B0022A010E061A086A000E076EAB
:100D500003500410D8B4AFEF06F0B1EF06F0D9EFAE
:100D600006F0010E056EB9EF06F0D8900336043692
:100D7000052A04AEBEEF06F0C0EF06F0B5EF06F0B0
:100D8000D890073608360350015C04500258D8A0AA
:100D9000CCEF06F0CEEF06F0D3EF06F00350015E85
:100DA0000450025A0780D89004320332052EC0EF57
:100DB00006F00650D8B4DFEF06F0E1EF06F0E5EFFD
:100DC00006F0076C081ED8B0082A07C001F008C05A
:100DD00002F01200066A02BEF2EF06F0F0EF06F033
:100DE000F8EF06F0016C021ED8B0022A010E066E62
:100DF00004BEFFEF06F0FDEF06F003EF07F0036C13
:100E0000041ED8B0042A03500410D8B40AEF07F027
:100E10000CEF07F030EF07F0010E056E14EF07F04E
:100E2000D89003360436052A04AE19EF07F01BEFFD
:100E300007F010EF07F00350015C04500258D8A0EF
:100E400024EF07F026EF07F02AEF07F00350015ECA
:100E50000450025AD89004320332052E1BEF07F0DB
:100E60000650D8B436EF07F038EF07F03CEF07F044
:100E7000016C021ED8B0022A01C001F002C002F0CB
:100E80001200016E0104D8A448EF07F04AEF07F002
:100E90006FEF07F082500F0B0F0AD8B452EF07F034
:100EA00054EF07F061EF07F05E50D8B45AEF07F047
:100EB0005CEF07F061EF07F05E6A82500F0B7AEF8C
:100EC00007F082500F0B0F0AD8A469EF07F06BEF01
:100ED00007F079EF07F0010E5E6E79EF07F0015031
:100EE000D8A475EF07F077EF07F079EF07F05DEF23
:100EF00007F0FF0E1200010E41EC07F05B6E0E0EC4
:100F00005B18D8A486EF07F088EF07F093EF07F09F
:100F1000060E5C608EEF07F090EF07F0B2EF07F07F
:100F20005C2AB2EF07F00D0E5B18D8A49AEF07F019
:100F30009CEF07F0A7EF07F05C50D8B4A2EF07F0E2
:100F4000A4EF07F0B2EF07F05C06B2EF07F00B0E6C
:100F50005B18D8A4AEEF07F0B0EF07F0B2EF07F0E0
:100F6000070E5C6E5C5012000F01436B446B05C0B2
:100F700001F006C002F089EC08F008C045FF460EFB
:100F80000C6E0F0E0D6E0F6A000E0E6ED6EF07F090
:100F900007500E24D96EDA6A0E500C24E16E0F5001
:100FA0000D20E26EDFCFE7FF0E4A0F2A0850096ED0
:100FB0000A6A09500E5C0F50800A0B6E0A50800AB4
:100FC0000B58D8A0E6EF07F0E8EF07F0C8EF07F0FE
:100FD0000F0140871200040E48EC08F001C057F0E2
:100FE00002C058F0140E136EAE0E146E230E156E62
:100FF000410E166E57C001F058C002F0036A046A31
:10100000000EC8EC04F001C00FF002C010F003C0E5
:1010100011F004C012F001EC03F00FC028F010C072
:1010200029F011C02AF012C02BF0A2EC05F028C064
:1010300055F029C056F055C032F056C033F01200BA
:101040004E0EF66E110EF76E000EF86E00EE60F0AA
:1010500010EE30F00900F5CFEEFFE550E150FAE177
:10106000000EF66E300EF76E000EF86E0900F5CF2A
:101070005EF000EE90F00B0EEE6AE806FDE100EE89
:1010800055F0090EEE6AE806FDE1000125EF06F0D5
:10109000076E07C003F0D8900336D8900336C250CD
:1010A000C30B0310C26EC282C2B259EF08F05BEFED
:1010B00008F054EF08F0C350C4CF03F0046A03C033
:1010C00004F0036A0310056E0450066E05C001F0BB
:1010D00006C002F01200939493861F0E6F166F8E57
:1010E000800E6E18D8A477EF08F079EF08F070EF53
:1010F00008F0776AE10E706E1B0E716E030E726E51
:101100000D01D46B1F0E6F166F50606A608A608C81
:10111000120001C003F0070E0316050E046ED890EE
:101120000336042E8FEF08F003500F01426F01C009
:1011300003F002C004F0D89004320332D890043295
:101140000332D890043203320350416F12005247E9
:10115000004E470047310047320047330047340014
:101160004735004343005247004E47004731004790
:101170003200473300473400473500434300C08EF8
:10118000C09AC088C096C090C082C094C292C19AD2
:10119000C198C46AC36AC2801200BFEC08F0D4ECE4
:1011A00008F06BEC08F0120094500F09946E1200D6
:052FFC0020EF08F001C8
:020000040020DA
:08000000FFFFFFFFFFFFFFFF00
:020000040030CA
:0E000000FF071F1FFF8285FF0FC00FE00F409C
:00000001FF
